:060000000A128A110C280F
:10000800FE00030EF0000A08F1000A128A11EC281B
:100018000A128A110F28F901FA0183120313A001A9
:10002800A10183010A128A11192883120313A3015B
:10003800A201A20A0A128A11FD200A128A110A12C2
:100048008A110B210A128A11F201F301F30A003016
:100058000A128A119D200A128A11F201F20AF3018A
:10006800F30A00300A128A119D200A128A11F2013D
:10007800F301F30A00300A128A1169200A128A1160
:100088007903031D482849284428F90101308312BF
:100098000313A0070318A10A0030A1073030200677
:1000A800233003192106031D5A285B284428A00180
:1000B800A1012208F20023080A128A11D1200A128B
:1000C8008A1144280A128A110C28F7000130F4001A
:1000D800720A70280310F40DFF3E031D6E28740881
:1000E800F80094287808F40005307707F500F60141
:1000F800F60D750884008317761C83137408800432
:100108009C287809F40005307707F500F601F60D0C
:10011800750884008317761C8313740880059C284F
:100128007308003A03198528013A031976289C2890
:100138000800F7000130F400720AA4280310F40D37
:10014800FF3E031DA2287408F800C8287808F400A8
:1001580085307707F500F601F60D750884008317DA
:10016800761C831374088004D0287809F40085303D
:100178007707F500F601F60D750884008317761CDD
:10018800831374088005D0287308003A0319AA2835
:10019800013A0319B928D0280800F6000130F30005
:1001A800720AD8280310F30DFF3E031DD6287308E2
:1001B800F7007708F30005307607F400F501F50D30
:1001C800740884008317751C83137308800608005D
:1001D8000B1DEF28F028F6280B110130F9008312C7
:1001E8000313810171088A00700E8300FE0E7E0ED3
:1001F8000900DF30F2007208831603138105073007
:10020800F2007208810483120313810108008B161F
:040218008B17080038
:04400E00F53FFF3F3C
:00000001FF
