:060000000A128A11FC2F18
:100EFA00F001F00AF101F10A00300A128A1195276D
:100F0A000A128A11F001F00AF101F10A00300A12FC
:100F1A008A11C8270A128A11912F0A128A110028E7
:100F2A00F5000130F200700A9C2F0310F20DFF3E0B
:100F3A00031D9A2F7208F600BF2F7608F20085303B
:100F4A007507F300F401F40D730884008317741C09
:100F5A008313720880047609F20085307507F3005E
:100F6A00F401F40D730884008317741C8313720848
:100F7A008005C72F7108003A0319A22F013A0319F5
:100F8A00B02FC72F0800F5000130F200700ACF2FEA
:100F9A000310F20DFF3E031DCD2F7208F600F32F4A
:100FAA007608F20005307507F300F401F40D7308B2
:100FBA0084008317741C831372088004FB2F76093C
:100FCA00F20005307507F300F401F40D730884008C
:100FDA008317741C831372088005FB2F7108003A6B
:100FEA000319E42F013A0319D52FFB2F08008301B7
:060FFA000A128A117D2F8E
:04400E00F73FFF3F3A
:00000001FF
